:080000001BC0FECFFDCFFCCFB9
:10000800FBCFFACFF9CFF8CFF7CFF6CFF5CFF4CFB4
:10001800F3CFF2CFF1CFF0CFEFCFEECFEDCF102768
:10002800E80364000A00010000100001100001004C
:10003800F894EE27ECBBF1E0FBBFEBBFE5BF8DE02A
:10004800A2E0BB27ED938A95E9F780E094E0A0E66B
:10005800ED930197E9F7EFE5EDBFE4E0EEBFC0E609
:10006800D1E008C01A931A2F1FB9779BFECFEFB1C2
:1000780019910895ECE2E7BBE0E0E8BBE4BBE5BB1F
:10008800EEE0E1BBE8E0E2BBE0E0E3BFE2BFEFBDEA
:10009800EEBDEDBDECBDE7BDE6BDEBBDEABDE9BD1E
:1000A800E8BDE2BDE5BDE4BDE3BDE9BFE5BFEBB931
:1000B800E8E1EAB9E6E8E0BDE0E0E0BDEFE2E9B991
:1000C800E0E8E8B9E0E0E0BFE6B9E3EDEDB9E0E08B
:1000D800EEB9EEB1EFB112E4E12FEE5FECB9A12F6A
:1000E800C1DFA8EEB3E002D0F6CFFFCF109639F00B
:1000F800A89583E397E00197F1F71197C9F7089559
:00000001FF
